{
  "contractName": "DocumentHash",
  "abi": [
    {
      "constant": false,
      "inputs": [
        {
          "internalType": "bytes32",
          "name": "hash",
          "type": "bytes32"
        },
        {
          "internalType": "string",
          "name": "_nomfile",
          "type": "string"
        },
        {
          "internalType": "string",
          "name": "_username",
          "type": "string"
        }
      ],
      "name": "addDocHash",
      "outputs": [],
      "payable": false,
      "stateMutability": "nonpayable",
      "type": "function"
    },
    {
      "constant": true,
      "inputs": [
        {
          "internalType": "bytes32",
          "name": "hash",
          "type": "bytes32"
        }
      ],
      "name": "findDocHash",
      "outputs": [
        {
          "internalType": "uint256",
          "name": "",
          "type": "uint256"
        },
        {
          "internalType": "uint256",
          "name": "",
          "type": "uint256"
        },
        {
          "internalType": "string",
          "name": "",
          "type": "string"
        },
        {
          "internalType": "string",
          "name": "",
          "type": "string"
        }
      ],
      "payable": false,
      "stateMutability": "view",
      "type": "function"
    }
  ],
  "bytecode": "0x608060405234801561001057600080fd5b506105f2806100206000396000f3fe608060405234801561001057600080fd5b50600436106100365760003560e01c80634cf00d3f1461003b578063fe6b2d041461015c575b600080fd5b6100676004803603602081101561005157600080fd5b81019080803590602001909291905050506102b8565b604051808581526020018481526020018060200180602001838103835285818151815260200191508051906020019080838360005b838110156100b757808201518184015260208101905061009c565b50505050905090810190601f1680156100e45780820380516001836020036101000a031916815260200191505b50838103825284818151815260200191508051906020019080838360005b8381101561011d578082015181840152602081019050610102565b50505050905090810190601f16801561014a5780820380516001836020036101000a031916815260200191505b50965050505050505060405180910390f35b6102b66004803603606081101561017257600080fd5b81019080803590602001909291908035906020019064010000000081111561019957600080fd5b8201836020820111156101ab57600080fd5b803590602001918460018302840111640100000000831117156101cd57600080fd5b91908080601f016020809104026020016040519081016040528093929190818152602001838380828437600081840152601f19601f8201169050808301925050505050505091929192908035906020019064010000000081111561023057600080fd5b82018360208201111561024257600080fd5b8035906020019184600183028401116401000000008311171561026457600080fd5b91908080601f016020809104026020016040519081016040528093929190818152602001838380828437600081840152601f19601f82011690508083019250505050505050919291929050505061045b565b005b6000806060806000808681526020019081526020016000206000015460008087815260200190815260200160002060010154600080888152602001908152602001600020600201600080898152602001908152602001600020600301818054600181600116156101000203166002900480601f0160208091040260200160405190810160405280929190818152602001828054600181600116156101000203166002900480156103a95780601f1061037e576101008083540402835291602001916103a9565b820191906000526020600020905b81548152906001019060200180831161038c57829003601f168201915b50505050509150808054600181600116156101000203166002900480601f0160208091040260200160405190810160405280929190818152602001828054600181600116156101000203166002900480156104455780601f1061041a57610100808354040283529160200191610445565b820191906000526020600020905b81548152906001019060200180831161042857829003601f168201915b5050505050905093509350935093509193509193565b6104636104f0565b604051806080016040528042815260200143815260200184815260200183815250905080600080868152602001908152602001600020600082015181600001556020820151816001015560408201518160020190805190602001906104c9929190610518565b5060608201518160030190805190602001906104e6929190610518565b5090505050505050565b6040518060800160405280600081526020016000815260200160608152602001606081525090565b828054600181600116156101000203166002900490600052602060002090601f016020900481019282601f1061055957805160ff1916838001178555610587565b82800160010185558215610587579182015b8281111561058657825182559160200191906001019061056b565b5b5090506105949190610598565b5090565b6105ba91905b808211156105b657600081600090555060010161059e565b5090565b9056fea265627a7a72315820da8c56cb13070192f023aca029d6d11d4f97999ba3d9b9439398c31db9d8df6d64736f6c63430005100032",
  "source": "// SPDX-License-Identifier: MIT\npragma solidity >=0.4.22 <0.9.0;\n\ncontract DocumentHash {\n    struct Record {\n        uint256 mineTime;\n        uint256 blockNumber;\n        string  nomFile;\n        string username;\n    }\n\n    mapping(bytes32 => Record) private docHashes;\n\n\n    function addDocHash(bytes32  hash, string memory  _nomfile,string memory _username) public {\n        Record memory newRecord = Record(block.timestamp, block.number, _nomfile, _username);\n        docHashes[hash] = newRecord;\n    }\n\n    function findDocHash (bytes32 hash)\n        public view\n        returns (\n            uint256,\n            uint256,\n            string memory,\n            string memory\n        )\n    {\n        return (\n            docHashes[hash].mineTime,\n            docHashes[hash].blockNumber,\n            docHashes[hash].nomFile,\n            docHashes[hash].username\n        );\n    }\n}\n",
  "sourcePath": "C:/ws/blockchain/industrialisation/contracts/DocumentHash.sol",
  "compiler": {
    "name": "solc",
    "version": "0.5.16+commit.9c3226ce.Emscripten.clang"
  },
  "schemaVersion": "3.3.4",
  "updatedAt": "2021-03-18T12:12:34.908Z",
  "networkType": "ethereum",
  "devdoc": {
    "methods": {}
  },
  "userdoc": {
    "methods": {}
  }
}