{
  "contractName": "DocumentHash",
  "abi": [
    {
      "constant": false,
      "inputs": [
        {
          "internalType": "bytes32",
          "name": "hash",
          "type": "bytes32"
        },
        {
          "internalType": "string",
          "name": "_nomfile",
          "type": "string"
        }
      ],
      "name": "addDocHash",
      "outputs": [],
      "payable": false,
      "stateMutability": "nonpayable",
      "type": "function"
    },
    {
      "constant": true,
      "inputs": [
        {
          "internalType": "bytes32",
          "name": "hash",
          "type": "bytes32"
        }
      ],
      "name": "findDocHash",
      "outputs": [
        {
          "internalType": "uint256",
          "name": "",
          "type": "uint256"
        },
        {
          "internalType": "uint256",
          "name": "",
          "type": "uint256"
        },
        {
          "internalType": "string",
          "name": "",
          "type": "string"
        }
      ],
      "payable": false,
      "stateMutability": "view",
      "type": "function"
    }
  ],
  "bytecode": "0x608060405234801561001057600080fd5b50610410806100206000396000f3fe608060405234801561001057600080fd5b50600436106100365760003560e01c80634cf00d3f1461003b578063bf3ccf48146100f0575b600080fd5b6100676004803603602081101561005157600080fd5b81019080803590602001909291905050506101b5565b6040518084815260200183815260200180602001828103825283818151815260200191508051906020019080838360005b838110156100b3578082015181840152602081019050610098565b50505050905090810190601f1680156100e05780820380516001836020036101000a031916815260200191505b5094505050505060405180910390f35b6101b36004803603604081101561010657600080fd5b81019080803590602001909291908035906020019064010000000081111561012d57600080fd5b82018360208201111561013f57600080fd5b8035906020019184600183028401116401000000008311171561016157600080fd5b91908080601f016020809104026020016040519081016040528093929190818152602001838380828437600081840152601f19601f8201169050808301925050505050505091929192905050506102a4565b005b60008060606000808581526020019081526020016000206000015460008086815260200190815260200160002060010154600080878152602001908152602001600020600201808054600181600116156101000203166002900480601f0160208091040260200160405190810160405280929190818152602001828054600181600116156101000203166002900480156102905780601f1061026557610100808354040283529160200191610290565b820191906000526020600020905b81548152906001019060200180831161027357829003601f168201915b505050505090509250925092509193909250565b6102ac610315565b6040518060600160405280428152602001438152602001838152509050806000808581526020019081526020016000206000820151816000015560208201518160010155604082015181600201908051906020019061030c929190610336565b50905050505050565b60405180606001604052806000815260200160008152602001606081525090565b828054600181600116156101000203166002900490600052602060002090601f016020900481019282601f1061037757805160ff19168380011785556103a5565b828001600101855582156103a5579182015b828111156103a4578251825591602001919060010190610389565b5b5090506103b291906103b6565b5090565b6103d891905b808211156103d45760008160009055506001016103bc565b5090565b9056fea265627a7a7231582091975d77c855c39f63456e9727032e793abe6b9ad7eef9fdafd4cc1ff16849e364736f6c63430005100032",
  "source": "// SPDX-License-Identifier: MIT\npragma solidity >=0.4.22 <0.9.0;\n\ncontract DocumentHash {\n    struct Record {\n        uint256 mineTime;\n        uint256 blockNumber;\n        string  nomFile;\n    }\n\n    mapping(bytes32 => Record) private docHashes;\n\n\n    function addDocHash(bytes32  hash, string memory  _nomfile) public {\n        Record memory newRecord = Record(block.timestamp, block.number, _nomfile);\n        docHashes[hash] = newRecord;\n    }\n\n    function findDocHash (bytes32 hash)\n        public view\n        returns (\n            uint256,\n            uint256,\n            string memory\n        )\n    {\n        return (\n            docHashes[hash].mineTime,\n            docHashes[hash].blockNumber,\n            docHashes[hash].nomFile\n        );\n    }\n}\n",
  "sourcePath": "/Users/macbookpro/Documents/gainde2000/blockchain/stockageblockchain/contracts/DocumentHash.sol",
  "compiler": {
    "name": "solc",
    "version": "0.5.16+commit.9c3226ce.Emscripten.clang"
  },
  "schemaVersion": "3.3.4",
  "updatedAt": "2021-03-17T08:49:46.579Z",
  "networkType": "ethereum",
  "devdoc": {
    "methods": {}
  },
  "userdoc": {
    "methods": {}
  }
}